{
  "contractName": "SupplyChain",
  "abi": [
    {
      "inputs": [],
      "payable": false,
      "stateMutability": "nonpayable",
      "type": "constructor"
    },
    {
      "anonymous": false,
      "inputs": [
        {
          "indexed": false,
          "name": "sku",
          "type": "uint256"
        }
      ],
      "name": "ForSale",
      "type": "event"
    },
    {
      "anonymous": false,
      "inputs": [
        {
          "indexed": false,
          "name": "sku",
          "type": "uint256"
        }
      ],
      "name": "Sold",
      "type": "event"
    },
    {
      "anonymous": false,
      "inputs": [
        {
          "indexed": false,
          "name": "sku",
          "type": "uint256"
        }
      ],
      "name": "Shipped",
      "type": "event"
    },
    {
      "anonymous": false,
      "inputs": [
        {
          "indexed": false,
          "name": "sku",
          "type": "uint256"
        }
      ],
      "name": "Received",
      "type": "event"
    },
    {
      "constant": false,
      "inputs": [
        {
          "name": "_name",
          "type": "string"
        },
        {
          "name": "_price",
          "type": "uint256"
        }
      ],
      "name": "addItem",
      "outputs": [],
      "payable": false,
      "stateMutability": "nonpayable",
      "type": "function"
    },
    {
      "constant": false,
      "inputs": [
        {
          "name": "_sku",
          "type": "uint256"
        }
      ],
      "name": "buyItem",
      "outputs": [],
      "payable": true,
      "stateMutability": "payable",
      "type": "function"
    },
    {
      "constant": false,
      "inputs": [
        {
          "name": "sku",
          "type": "uint256"
        }
      ],
      "name": "shipItem",
      "outputs": [],
      "payable": false,
      "stateMutability": "nonpayable",
      "type": "function"
    },
    {
      "constant": false,
      "inputs": [
        {
          "name": "sku",
          "type": "uint256"
        }
      ],
      "name": "receiveItem",
      "outputs": [],
      "payable": false,
      "stateMutability": "nonpayable",
      "type": "function"
    },
    {
      "constant": true,
      "inputs": [
        {
          "name": "_sku",
          "type": "uint256"
        }
      ],
      "name": "fetchItem",
      "outputs": [
        {
          "name": "name",
          "type": "string"
        },
        {
          "name": "sku",
          "type": "uint256"
        },
        {
          "name": "price",
          "type": "uint256"
        },
        {
          "name": "state",
          "type": "uint256"
        },
        {
          "name": "seller",
          "type": "address"
        },
        {
          "name": "buyer",
          "type": "address"
        }
      ],
      "payable": false,
      "stateMutability": "view",
      "type": "function"
    }
  ],
  "bytecode": "0x608060405234801561001057600080fd5b50336000806101000a81548173ffffffffffffffffffffffffffffffffffffffff021916908373ffffffffffffffffffffffffffffffffffffffff1602179055506000600181905550610ac3806100686000396000f30060806040526004361061006d576000357c0100000000000000000000000000000000000000000000000000000000900463ffffffff16806362d6bbdf14610072578063a26be999146100e5578063ad4b9cfb14610112578063e7fb74c714610233578063f61c899a14610253575b600080fd5b34801561007e57600080fd5b506100e3600480360381019080803590602001908201803590602001908080601f016020809104026020016040519081016040528093929190818152602001838380828437820191505050505050919291929080359060200190929190505050610280565b005b3480156100f157600080fd5b5061011060048036038101908080359060200190929190505050610412565b005b34801561011e57600080fd5b5061013d60048036038101908080359060200190929190505050610516565b60405180806020018781526020018681526020018581526020018473ffffffffffffffffffffffffffffffffffffffff1673ffffffffffffffffffffffffffffffffffffffff1681526020018373ffffffffffffffffffffffffffffffffffffffff1673ffffffffffffffffffffffffffffffffffffffff168152602001828103825288818151815260200191508051906020019080838360005b838110156101f35780820151818401526020810190506101d8565b50505050905090810190601f1680156102205780820380516001836020036101000a031916815260200191505b5097505050505050505060405180910390f35b610251600480360381019080803590602001909291905050506106a9565b005b34801561025f57600080fd5b5061027e600480360381019080803590602001909291905050506108ed565b005b7fa96ae0fc3224ebd79eebfe54bd130cc9cb94416cddd1f2386115e00b725324686001546040518082815260200191505060405180910390a160c0604051908101604052808381526020016001548152602001828152602001600060038111156102e657fe5b81526020013373ffffffffffffffffffffffffffffffffffffffff168152602001600073ffffffffffffffffffffffffffffffffffffffff1681525060026000600154815260200190815260200160002060008201518160000190805190602001906103539291906109f2565b5060208201518160010155604082015181600201556060820151816003015560808201518160040160006101000a81548173ffffffffffffffffffffffffffffffffffffffff021916908373ffffffffffffffffffffffffffffffffffffffff16021790555060a08201518160050160006101000a81548173ffffffffffffffffffffffffffffffffffffffff021916908373ffffffffffffffffffffffffffffffffffffffff16021790555090505060018054016001819055505050565b806002600381111561042057fe5b600260008381526020019081526020016000206003015414151561044357600080fd5b6002600083815260200190815260200160002060050160009054906101000a900473ffffffffffffffffffffffffffffffffffffffff168073ffffffffffffffffffffffffffffffffffffffff163373ffffffffffffffffffffffffffffffffffffffff161415156104b457600080fd5b7fa8142743f8f70a4c26f3691cf4ed59718381fb2f18070ec52be1f1022d855557836040518082815260200191505060405180910390a16003808111156104f757fe5b6002600085815260200190815260200160002060030181905550505050565b60606000806000806000600260008881526020019081526020016000206000018054600181600116156101000203166002900480601f0160208091040260200160405190810160405280929190818152602001828054600181600116156101000203166002900480156105ca5780601f1061059f576101008083540402835291602001916105ca565b820191906000526020600020905b8154815290600101906020018083116105ad57829003601f168201915b505050505095506002600088815260200190815260200160002060010154945060026000888152602001908152602001600020600201549350600260008881526020019081526020016000206003015492506002600088815260200190815260200160002060040160009054906101000a900473ffffffffffffffffffffffffffffffffffffffff1691506002600088815260200190815260200160002060050160009054906101000a900473ffffffffffffffffffffffffffffffffffffffff16905085858585858595509550955095509550955091939550919395565b80600060038111156106b757fe5b60026000838152602001908152602001600020600301541415156106da57600080fd5b600260008381526020019081526020016000206002015480341015151561070057600080fd5b826000806002600084815260200190815260200160002060020154915081340390506002600084815260200190815260200160002060050160009054906101000a900473ffffffffffffffffffffffffffffffffffffffff1673ffffffffffffffffffffffffffffffffffffffff166108fc829081150290604051600060405180830381858888f1935050505015801561079e573d6000803e3d6000fd5b507f92f64ca637d023f354075a4be751b169c1a8a9ccb6d33cdd0cb3520543995727866040518082815260200191505060405180910390a1336002600088815260200190815260200160002060050160006101000a81548173ffffffffffffffffffffffffffffffffffffffff021916908373ffffffffffffffffffffffffffffffffffffffff1602179055506001600381111561083857fe5b60026000888152602001908152602001600020600301819055506002600087815260200190815260200160002060040160009054906101000a900473ffffffffffffffffffffffffffffffffffffffff1673ffffffffffffffffffffffffffffffffffffffff166108fc60026000898152602001908152602001600020600201549081150290604051600060405180830381858888f193505050501580156108e4573d6000803e3d6000fd5b50505050505050565b80600160038111156108fb57fe5b600260008381526020019081526020016000206003015414151561091e57600080fd5b6002600083815260200190815260200160002060040160009054906101000a900473ffffffffffffffffffffffffffffffffffffffff168073ffffffffffffffffffffffffffffffffffffffff163373ffffffffffffffffffffffffffffffffffffffff1614151561098f57600080fd5b7ff00b9a5725b80c54016f42114f6ed7792d22eecb116011c4afac29c57bef6c95836040518082815260200191505060405180910390a1600260038111156109d357fe5b6002600085815260200190815260200160002060030181905550505050565b828054600181600116156101000203166002900490600052602060002090601f016020900481019282601f10610a3357805160ff1916838001178555610a61565b82800160010185558215610a61579182015b82811115610a60578251825591602001919060010190610a45565b5b509050610a6e9190610a72565b5090565b610a9491905b80821115610a90576000816000905550600101610a78565b5090565b905600a165627a7a72305820c28ca46eda9b0a8153ef9fd3b81f7adad91ee6f28656600ed29e3a2a8441b6ff0029",
  "source": "pragma solidity ^0.4.23;\n\ncontract SupplyChain {\n\n  /* set owner */\n  address owner;\n\n  /* Variable called \"skuCount\" tracks the most recent sku (stock keeping unit). */\n   uint skuCount;\n\n  /* This public mapping that maps the SKU (a number) to an Item.\n     These mappings are called \"items\".\n  */\n  mapping(uint => Item) items;\n\n  /* Below is an enum called State. This has 4 states:\n        ForSale\n        Sold\n        Shipped\n        Received\n    (Declaring them in this order is important for testing).\n  */\n  enum State {\n    ForSale,\n    Sold,\n    Shipped,\n    Received\n  }\n\n  /* Struct \"Item\" with subcategories name, sku, price, state, seller, and buyer.*/\n  struct Item {\n    string name;\n    uint sku;\n    uint price;\n    uint state;\n    address seller;\n    address buyer;\n  }\n\n  /* Creates 4 events with the same name as each possible State (see above).\n    Each event accepts the argument \"sku\".*/\n    event ForSale (uint sku);\n    event Sold (uint sku);\n    event Shipped (uint sku);\n    event Received (uint sku);\n\n  /* Modifier isOwner checks if the msg.sender is the owner of the contract.*/\n  modifier isOwner () {\n    require (msg.sender == owner);\n    /* Example use of '_;' [source: https://www.toshblocks.com/solidity/function-modifiers-solidity-how-they-works/]:\n\n    //this is how we define the modifiers\n    modifier onlyCreator() {\n        // if a condition is not met then throw an exception\n        if (msg.sender != creator) throw;\n        // or else just continue executing the function\n        _;\n\n        // this is how we add a modifier to the function\n        // there can be zero of more number of modifiers\n       function kill() onlyCreator {\n           selfdestruct(creator);\n       }\n\n    }\n    */\n    _;\n  }\n\n  /* Modifier verifyCaller checks if the msg.sender is owner of the address being passed.*/\n  modifier verifyCaller (address _address) {\n    require (msg.sender == _address);\n    _;\n  }\n\n  /* Modifier paidEnough checks that contract owner has passed more wei than \"_price\".*/\n  modifier paidEnough (uint _price) {\n     require(msg.value >= _price);\n     _;\n   }\n\n  modifier checkValue (uint _sku) {\n    /* Refunds them after paying for item.\n      \"_\" is a special character used in functional modifiers.\n      \"_\" returns the flow of execution to the original function that is annotated.\n      https://ethereum.stackexchange.com/questions/19171/what-does-underscore-do#19173 */\n\n    uint _price = items[_sku].price;\n    uint amountToRefund = msg.value - _price;\n    items[_sku].buyer.transfer(amountToRefund);\n    _;\n  }\n\n  /* forSale modifier requires that the item with the given sku has the state \"ForSale\". */\n  modifier forSale (uint _sku) {\n    require(items[_sku].state == uint(State.ForSale));\n    _;\n  }\n\n  /* sold modifier requires that the item with the given sku has the state \"Sold\". */\n  modifier sold (uint _sku) {\n    require(items[_sku].state == uint(State.Sold));\n    _;\n  }\n\n  /* shipped modifier requires that the item with the given sku has the state \"Shipped\".*/\n  modifier shipped (uint _sku) {\n    require(items[_sku].state == uint(State.Shipped));\n    _;\n  }\n\n  /* received modifier requires that the item with the given sku has the state \"Received\". */\n  modifier received (uint _sku) {\n    require(items[_sku].state == uint(State.Received));\n    _;\n  }\n\n\n  constructor() public {\n    /* Sets the owner as the person who instantiated the contract. */\n    owner = msg.sender;\n\n    /* Sets skuCount to 0. */\n    skuCount = 0;\n  }\n\n  function addItem(string _name, uint _price) public {\n    emit ForSale(skuCount);\n    items[skuCount] = Item({name: _name, sku: skuCount, price: _price, state: uint(State.ForSale), seller: msg.sender, buyer: 0});\n    skuCount = skuCount + 1;\n  }\n\n  /* Function buyItem will:\n       Transfer money to the seller.\n       Set the buyer as the person who called this transaction.\n       Set the state to Sold.\n\n    This function will use 3 modifiers to:\n       Check if the item is for sale.\n       If the buyer has paid enough.\n       Check the value after the function is called to make sure the buyer is refunded any excess ether sent.\n\n    Then the event associated with this function is called.*/\n\n  function buyItem(uint _sku)\n    public payable forSale(_sku) paidEnough(items[_sku].price) checkValue(_sku) {\n\n    /* emit EventName(); calls event explicity. The below changes the state of the item to \"Sold\". */\n    emit Sold(_sku);\n    items[_sku].buyer = msg.sender;\n    items[_sku].state = uint(State.Sold);\n    items[_sku].seller.transfer(items[_sku].price);\n    }\n\n\n  function shipItem(uint sku)\n    public\n    /* Modifer checks if item is sold already. */\n    sold(sku)\n    /* Modifier checks if the person calling function shipItem is the seller.*/\n    verifyCaller(items[sku].seller)\n\n  {\n    /* emit EventName(); calls event explicity. The below changes the state of the item to \"Shipped\". */\n    emit Shipped(sku);\n\n    items[sku].state = uint(State.Shipped);\n  }\n\n\n  function receiveItem(uint sku)\n    public\n    /* Modifer checks if item is shipped already. */\n    shipped(sku)\n\n    /* Modifier checks if the person calling function shipItem is the buyer.*/\n    verifyCaller(items[sku].buyer)\n\n    {\n      /* emit EventName(); calls event explicity. The below changes the state of the item to \"Received\". */\n      emit Received(sku);\n\n      items[sku].state = uint(State.Received);\n    }\n\n  /* We have these functions completed so we can run tests, just ignore it :) */\n  function fetchItem(uint _sku) public view returns (string name, uint sku, uint price, uint state, address seller, address buyer) {\n    name = items[_sku].name;\n    sku = items[_sku].sku;\n    price = items[_sku].price;\n    state = uint(items[_sku].state);\n    seller = items[_sku].seller;\n    buyer = items[_sku].buyer;\n    return (name, sku, price, state, seller, buyer);\n  }\n\n}\n",
  "sourcePath": "/home/otterit/Documents/ConsenSys-Academy-2018/Supply Chain/contracts/SupplyChain.sol",
  "compiler": {
    "name": "solc",
    "version": "0.4.24+commit.e67f0147.Emscripten.clang"
  },
  "schemaVersion": "2.0.0",
  "updatedAt": "2018-07-28T22:36:42.081Z"
}